:020000040800F2
:1000000090070020392D0008350A0008370A00083B
:100010003B0A00083F0A0008430A000800000000ED
:10002000000000000000000000000000470A000877
:10003000490A0008000000004B0A00084D0A0008A9
:10004000532D0008532D0008532D0008532D000890
:10005000532D0008532D0008532D0008532D000880
:100060004F0A0008532D0008532D0008532D000897
:10007000532D0008532D0008532D0008532D000860
:10008000532D0008532D0008532D0008532D000850
:10009000532D0008532D0008532D0008532D000840
:1000A000532D0008532D0008532D0008532D000830
:1000B000BF0A0008532D0008532D0008532D0008D7
:1000C000532D0008532D0008532D0008532D000810
:1000D000532D0008AF2C0008532D0008532D0008A5
:1000E000532D0008532D0008532D0008532D0008F0
:1000F000532D0008532D0008532D0008532D0008E0
:10010000532D0008532D0008532D0008532D0008CF
:10011000532D0008532D0008532D0008532D0008BF
:10012000532D0008532D0008532D0008532D0008AF
:1001300000F002F800F03FF80AA090E8000C8244BA
:100140008344AAF10107DA4501D100F034F8AFF297
:10015000090EBAE80F0013F0010F18BFFB1A43F0A5
:1001600001031847544D0000744D0000103A24BF9D
:1001700078C878C1FAD8520724BF30C830C144BF0C
:1001800004680C607047000000230024002500264E
:10019000103A28BF78C1FBD8520728BF30C148BFEA
:1001A0000B607047642904F0B783002070471FB5C7
:1001B0001FBD10B510BD04F077FC1146FFF7F7FF27
:1001C00000F008F804F095FC03B4FFF7F2FF03BC5D
:1001D00002F012FD2DE9FF410020009001900290F5
:1001E000039002F09FFC00F081FD472144F61F6060
:1001F00000F0C6FF472144F61F6001F009F84FF4F4
:10020000E13002F008FD00F0F0FC02F0AAF802F084
:10021000D3F802F0E8F802F083F8472144F61F60B3
:1002200001F03EF8472144F61F6001F081F84721B4
:1002300044F61F6001F0C4F8472144F61F6001F046
:10024000EAF9472144F61F6001F02EFA472144F6EF
:100250001F6001F0FEF8472144F61F6001F042F9EB
:10026000472144F61F6001F085F9C82001F0F7FD31
:1002700000F001FE00F0F1FD01F054FF022001F05A
:1002800005FD40F2DC5001F066FC40F2DC51F9481B
:1002900004F02CFA40F2AA51F64804F029FA4FF47F
:1002A000967002F07CFC40F2DC51F24804F01EFA39
:1002B00040F2DC51EF4804F01BFA02F013F9009011
:1002C000EDA0009904F0E8FA40F20E61E94804F06C
:1002D0000DFA40F2DC51E74804F00AFA4FF4967048
:1002E00002F05DFC01F0F4FD022001F0F1FC40F2AF
:1002F000DC5001F030FC40F2DC51DE4804F0F6F94D
:1003000040F2AA51DB4804F0F3F94FF4967002F082
:1003100046FC40F2DC51D74804F0E8F940F2DC51E9
:10032000D44804F0E5F902F0DDF8019040F20E61E6
:10033000D04804F0DBF940F2DC51CE4804F0D8F9A3
:100340004FF4967002F02BFC40F2DC51C94804F0E7
:10035000CDF940F2DC51C74804F0CAF900F060FD65
:100360004FF4967002F01BFC00F037FD4FF49670CE
:1003700002F015FC00F062FD4FF4967002F00FFCE5
:1003800001F0A6FD022001F0A3FC01F0E9FEC82067
:1003900001F065FD40F2DC51B64804F0A7F940F2E7
:1003A000AA51B44804F0A4F94FF4967002F0F7FB98
:1003B00040F2DC51AF4804F099F940F2DC51AD480D
:1003C00004F096F900F033FD4FF4967002F0E7FB6D
:1003D00000F011FD4FF4967002F0E1FB00F02EFDED
:1003E0004FF4967002F0DBFB02F07CF8029040F2D2
:1003F000DC51A04804F07AF940F20E619D4804F007
:1004000077F94FF4967002F0CAFB01F061FD042009
:1004100001F03CFC01F0A4FE00F0B5FC4FF4967036
:1004200002F0BDFB01F054FD009E019C029D304690
:1004300002F0CCF901F090FA00F09EFC4FF49670B7
:1004400002F0ADFB01F0B6FD301B002804DD311BCE
:10045000481C02F061F905E0301B03D5A11B481CC4
:1004600002F0B4F901F078FA00F0B0FC4FF49670A5
:1004700002F095FB40F204617E4804F037F940F247
:10048000DC517C4804F034F94FF4FA7002F087FB39
:1004900001F062FA40F2B451764804F027F940F2D4
:1004A000DC51744804F024F94FF4FA7002F077FB41
:1004B0004FF4967001F071FB01F07CFD601B002889
:1004C00004DD611B481C02F027F905E0601B03D521
:1004D000291B481C02F07AF9C82001F0C0FC40F248
:1004E000DC51644804F002F940F2B451614804F070
:1004F000FFF84FF4967002F052FB01F02DFA00F075
:1005000073FC4FF4967002F04AFB40F2DC515948FC
:1005100004F0ECF840F20461564804F0E9F84FF4B6
:10052000967002F03CFB4FF4967001F036FB01F040
:1005300041FD012D03D1042002F09FF903E0C5F134
:10054000070002F0D0F9642001F089FC00F09FFC64
:1005500001F0C8FF0390039FC6F10F00001B401B72
:10056000A0EB070801F052FDC8F1070002F0EEF918
:1005700001F0F2F900F000FC4FF4967002F00FFB6E
:100580004FF47A7001F009FB01F0A2FCA04505DDF3
:10059000A8EB0401481C02F0D9F904E0A4EB08011F
:1005A000481C02F029FA40F2DC51324804F09EF86F
:1005B0004FF4B4612F4804F09BF84FF4967002F0AA
:1005C000EEFA01F0C9F900F0F3FB4FF4967002F077
:1005D000E6FA40F2DC51274804F088F84FF4C36192
:1005E000244804F085F84FF4967002F0D8FA4FF4DE
:1005F0007A7001F0D2FA01F06BFCAC4204DD611BB1
:10060000481C02F0A3F903E0291B481C02F0F4F98E
:100610004FF4C361174804F069F840F2DC51154803
:1006200004F066F84FF4967002F0B9FA01F094F90C
:1006300000F0B0FB4FF4967002F0B1FA4FF4B461E1
:100640000C4804F053F840F2DC510A4804F050F82A
:100650004FF4967002F0A3FA4FF47A7001F09DFA0D
:1006600001F036FCBD420DDDE91B481C02F06EF9BD
:100670000CE0000000040040636F6C6F723D256465
:100680000A0D0000791B481C02F0B6F940F2DC515B
:10069000E74804F02BF840F2B451E54804F028F89C
:1006A0004FF4167002F07BFA01F056F900F09CFB53
:1006B0004FF4967002F073FA40F2DC51DC4804F01B
:1006C00015F840F20461DA4804F012F84FF416709D
:1006D00002F065FA4FF47A7001F05FFA01F0F8FB6E
:1006E000B74204DDB91B481C02F030F903E0F11BEE
:1006F000481C02F081F940F20461CD4803F0F6FF96
:1007000040F2DC51CA4803F0F3FF4FF4967002F058
:1007100046FA01F021F900F059FB4FF4967002F00F
:100720003EFA40F2B451C24803F0E0FF40F2DC511F
:10073000BF4803F0DDFF4FF4967002F030FA4FF43B
:100740007A7001F02AFA01F0C3FB052E03D10420D0
:1007500002F0C9F802E0701C02F08FF8642001F08A
:100760007EFB01F0F9F800F092FB4FF4967002F076
:1007700016FA01F04BFCB8F1050F03D1042002F08A
:1007800091F903E008F1010002F0A8F901F0E4F8A2
:1007900000F0F2FA4FF4967002F001FA4FF4FA709A
:1007A00001F0FBF901F094FBA84505DDA8EB05017C
:1007B000481C02F077F904E0A5EB0801481C02F0A0
:1007C0008DF940F2DC519A4803F090FF4FF4B46188
:1007D000974803F08DFF4FF4967002F0E0F901F0B6
:1007E000BBF800F0E5FA4FF4967002F0D8F940F249
:1007F000DC518F4803F07AFF4FF4C3618C4803F05B
:1008000077FF4FF4967002F0CAF94FF4FA7001F0D6
:10081000C4F901F05DFBA54204DD291B481C02F070
:1008200041F903E0611B481C02F058F94FF4C36121
:100830007F4803F05BFF40F2DC517D4803F058FF36
:100840004FF4967002F0ABF901F086F800F0A2FACE
:100850004FF4967002F0A3F94FF4B461744803F0BA
:1008600045FF40F2DC51724803F042FF4FF49670AE
:1008700002F095F94FF4FA7001F08FF901F028FBBE
:10088000BC4204DDE11B481C02F00CF903E0391BFB
:10089000481C02F023F940F20461654803F026FF8A
:1008A00040F2DC51624803F023FF4FF4167002F06F
:1008B00076F901F051F800F089FA4FF4967002F0E1
:1008C0006EF940F2B4515A4803F010FF40F2DC5187
:1008D000574803F00DFF4FF4167002F060F94FF423
:1008E000FA7001F05AF901F0F3FAC82001F0B7FAF2
:1008F000B74204DDB91B481C02F0D4F803E0F11B39
:10090000481C02F0EBF840F2DC51494803F0EEFEDF
:1009100040F2B451464803F0EBFE4FF4967002F0FB
:100920003EF901F019F800F05FFA4FF4967002F00A
:1009300036F940F2DC513E4803F0D8FE40F2046143
:100940003B4803F0D5FE4FF4967002F028F94FF4BF
:10095000FA7001F022F901F0BBFA00F0B2FA4FF49C
:10096000967002F01CF9052E03D1322001F015F922
:1009700003E0C6F1050001F0F1F9012E03D0012CCE
:1009800001D0012D02D100F047FB01E000F0C2FAD6
:1009900001F0F1FA012001F0E1F9022E03D0022C5E
:1009A00001D0022D02D100F037FB01E000F0B2FAD5
:1009B00001F0E1FA012001F0D1F9032E03D0032C5C
:1009C00001D0032D02D100F027FB01E000F0A2FAD4
:1009D00001F0D1FA012001F0C1F9042E03D0042C5A
:1009E00001D0042D02D100F017FB01E000F092FAD3
:1009F00001F0C1FA012001F0B1F9052E03D0052C58
:100A000001D0052D02D100F007FB01E000F082FAD1
:100A100001F0B1FA022001F039F901F083FB42F252
:100A2000107001F01CFA002004B0BDE8F081000055
:100A300000040040704700BFFEE700BFFEE700BFB4
:100A4000FEE700BFFEE7704770477047704710B57C
:100A5000042003F005FF00B3042003F012FF264832
:100A6000007801280AD1800224490860400008600B
:100A700023480068401C224908601FE01E48007897
:100A800002280BD140021D4908604000091F086080
:100A90001C480068401C1B4908600FE0164800789D
:100AA00003280BD14FF480601449091F08604000EF
:100AB000086015480068401C1349086010BD10B557
:100AC0000121880703F043FEA0B10121880703F04C
:100AD0004FFE09480078401C074908700846007816
:100AE000032807DD00214FF0804003F067FB04205E
:100AF0000149087010BD00000C000020140C0140DA
:100B00000000002008000020040000200CB5002098
:100B1000019000906C48006840F480306A49086099
:100B200000BF6948006800F4003000900198401C44
:100B30000190009818B90198B0F5A06FF1D1624802
:100B4000006800F4003010B10120009001E00020A6
:100B500000900098012843D15C48006840F01000E4
:100B60005A4908600846006820F0030008600846FB
:100B7000006840F0020008605348406852494860ED
:100B80000846406848600846406840F48060486015
:100B90000846406820F47C1048600846406840F4ED
:100BA000E81048600846006840F08070086000BFA8
:100BB0004548006800F000700028F9D042484068BD
:100BC00020F00300404948600846406840F00200B9
:100BD000486000BF3C48406800F00C000828F9D18C
:100BE0000CBD10B5FFF792FF10BD10B53648006878
:100BF00040F0010034490860084640683449084024
:100C00003149486008460068324908402E4908606A
:100C10000846006820F4802008600846406820F4F8
:100C2000FE0048604FF41F008860FFF7DAFF4FF0C6
:100C300000602949086010BD10B500210020002285
:100C4000214B5B6803F00C0121B1042906D008296F
:100C500028D107E0214B224C236027E01F4B204C7A
:100C6000236023E0184B5B6803F47010164B5B683D
:100C700003F48032022303EB904022B9194B434323
:100C8000174C23600DE0104B5B6803F4003323B175
:100C9000144B4343124C236003E0104B4343104C6E
:100CA000236003E00D4B0E4C236000BF00BF064BDA
:100CB0005B68C3F303130C4CE15C094B1B68CB402E
:100CC000074C236010BD00000010024000200240CD
:100CD0000000FFF8FFFFF6FE08ED00E000127A00CA
:100CE0001000002000093D001400002008B501217B
:100CF0001C2002F05DFB4FF47840ADF800000420AA
:100D00008DF8030003208DF802006946174802F0B1
:100D100093F84FF23C00ADF800006946144802F029
:100D20008BF843F6CD00ADF800006946114802F09B
:100D300083F81020ADF800008DF8030003208DF833
:100D4000020069460B4802F077F81021094802F0CA
:100D500020F92020ADF800006946064802F06CF842
:100D60002021044802F015F908BD000000080140E8
:100D7000000C01400010014010B54FF42F71F748EE
:100D800003F0B4FC10BD10B54FF4AF61F34803F0AD
:100D9000ADFC10BD10B54FF4FA61F04803F0A8FCAB
:100DA00010BD10B54FF41661EC4803F0A1FC10BD66
:100DB00010B540F60201E94803F09CFC10BD10B5E7
:100DC00040F2A461E54803F095FC10BD10B540F673
:100DD0000201E34803F08EFC10BD10B540F214513F
:100DE000DF4803F087FC10BD10B54FF49671DC4866
:100DF00003F082FC10BD10B540F23A71D84803F000
:100E00007BFC10BD10B54FF4C861D44803F074FCEE
:100E100010BD10B540F69801D04803F06DFC10BD30
:100E200010B540F24C41CF4803F066FC10BD10B540
:100E30004FF44871CB4803F05FFC10BD10B54FF480
:100E4000C871C84803F058FC10BD10B5FFF794FFF7
:100E5000FFF7A0FFFFF7ACFF10BD10B5FFF7D9FFFC
:100E6000FFF7ECFF10BD10B5FFF78DFFFFF799FFFF
:100E7000FFF7A5FF10BD10B5FFF77EFFFFF78AFF54
:100E8000FFF796FFFFF7A2FFFFF7AEFF10BD10B50B
:100E9000FFF779FFFFF785FFFFF791FFFFF79DFF52
:100EA000FFF7A9FF10BD10B54FF49161AD4803F0F5
:100EB00021FC10BD10B540F24651AA4803F01AFCBF
:100EC00010BD10B540F21451A64803F013FC10BD3C
:100ED00010B54FF4E161A34803F00CFC10BD10B550
:100EE00040F2A4619F4803F005FC10BD10B540F22C
:100EF000A4619C4803F0FEFB10BD10B5FFF790FF06
:100F0000FFF780FF10BD0120974908609749C1F89D
:100F10009401704710B54FF4617000F04FFE1CE073
:100F200000F0B1FD92480068B8B99148001F006810
:100F300098B98F48001D0068012804D08C480838F3
:100F40000068012809D1C82000F089FF4FF496708D
:100F500000F045FE00F000FD00E0E1E700BFFFF714
:100F6000B0FF4FF4967001F01AFEFFF7B8FF4FF490
:100F7000967001F014FE4FF4166001F069F8FFF767
:100F8000C2FF4FF4967001F00AFE4FF4FA7000F0C1
:100F900026FEC82000F063FFFFF78CFF4FF4967029
:100FA00001F0FDFD40F26C7001F069F8FFF7ABFF56
:100FB0004FF4967001F0F3FDFFF791FF4FF4967038
:100FC00001F0EDFD25E000F078FD6A480068012899
:100FD0001FD165486038006801281AD14FF4FA70B3
:100FE00000F03DFF322000F0C7FD4FF4FA7000F032
:100FF00036FFFFF75FFF4FF4967001F0D0FDFFF76B
:1010000060FF4FF4967001F0CAFD642000F027FFE6
:1010100000E0D8E700BF10BD10B54FF4617000F0DC
:10102000CDFD17E000F02FFD5148006890B9504801
:10103000001F006870B94E4808380068012809D1BF
:10104000C82000F00CFF4FF4967000F0C8FD00F0CF
:1010500083FC00E0E6E700BFFFF733FF4FF4967034
:1010600001F09DFDFFF73BFF4FF4967001F097FDF7
:101070004FF4166000F0ECFFFFF745FF4FF4967059
:1010800001F08DFD4FF4FA7000F0A9FDC82000F0CA
:10109000E6FEFFF70FFF4FF4967001F080FD40F27F
:1010A0006C7000F0ECFFFFF72EFF4FF4967001F02C
:1010B00076FDFFF714FF4FF4967001F070FD4FF4CA
:1010C000166000F0C5FFFFF71EFF4FF4967001F0A9
:1010D00066FD4FF4167000F082FDC82000F0BFFEE0
:1010E000FFF7E8FE4FF4967001F059FD40F26C7086
:1010F00000F0C5FFFFF707FF4FF4967001F04FFDBA
:10110000FFF7EDFE4FF4967001F049FD34E000F07A
:10111000D4FC1848006801282ED1134860380068B4
:10112000012829D14FF4FA7000F099FE322000F026
:1011300023FD4FF4FA7000F092FEFFF7BBFE4FF470
:10114000967001F02CFDFFF7BCFE4FF4967001F095
:1011500026FD642000F083FE0FE000000008004040
:10116000003401400004004090012242000022426D
:101170003881214230012142C9E700BF10BD000083
:1011800030B589B005460C460121022002F01DF958
:101190000121042002F00CF94020ADF820001820B5
:1011A0008DF8230003208DF8220008A9FE4801F0E5
:1011B00043FEADF81850ADF814400020ADF81A0009
:1011C000ADF8160005A9F94802F09CFC7020ADF8B6
:1011D00004000120ADF806000020ADF80A0002204E
:1011E000ADF80C0001A9F14802F0C9FC0121EF485B
:1011F00002F0F0FF0821ED4803F010F90121EB485F
:1012000003F0DCF80121E94802F0D8FF09B030BD55
:1012100030B589B005460C460121022002F0D5F810
:101220000121042002F0C4F88020ADF8200018202D
:101230008DF8230003208DF8220008A9DA4801F078
:10124000FBFDADF81850ADF814400020ADF81A00C1
:10125000ADF8160005A9D54802F054FC7020ADF891
:1012600004000120ADF806000020ADF80A000220BD
:10127000ADF80C0001A9CD4802F0C3FC0121CB4818
:1012800002F0A8FF0821C94803F0D1F80121C7489E
:1012900003F094F80121C54802F090FF09B030BD79
:1012A00030B589B005460C460121042002F08DF8C6
:1012B0000121082002F07CF84020ADF82000182021
:1012C0008DF8230003208DF8220008A9B84801F00A
:1012D000B3FDADF81850ADF814400020ADF81A0079
:1012E000ADF8160005A9B34802F00CFC7020ADF86B
:1012F00004000120ADF806000020ADF80A0002202D
:10130000ADF80C0001A9AB4802F039FC0121A94855
:1013100002F060FF0821A74803F080F80121A548EA
:1013200003F04CF80121A34802F048FF09B030BD9A
:1013300030B589B005460C460121042002F045F87D
:101340000121082002F034F88020ADF82000182098
:101350008DF8230003208DF8220008A9944801F09D
:101360006BFDADF81850ADF814400020ADF81A0030
:10137000ADF8160005A98F4802F0C4FB7020ADF847
:1013800004000120ADF806000020ADF80A0002209C
:10139000ADF80C0001A9874802F033FC0121854813
:1013A00002F018FF0821834803F041F80121814829
:1013B00003F004F801217F4802F000FF09B030BDBE
:1013C00030B589B005460C460121042001F0FDFF2F
:1013D0000121082001F0ECFF4FF48070ADF82000EF
:1013E00018208DF8230003208DF8220008A97048EA
:1013F00001F022FDADF81850ADF814400020ADF812
:101400001A00ADF8160005A96A4802F07BFB7020AF
:10141000ADF804000120ADF806000020ADF80A0088
:101420000220ADF80C0001A9624802F037FC01214E
:10143000604802F0CFFE08215E4803F005F8012164
:101440005C4802F0BBFF01215A4802F0B7FE09B028
:1014500030BD30B589B005460C460121042001F0AD
:10146000B4FF0121082001F0A3FF4FF40070ADF894
:10147000200018208DF8230003208DF8220008A9F1
:101480004B4801F0D9FCADF81850ADF814400020DD
:10149000ADF81A00ADF8160005A9464802F032FB77
:1014A0007020ADF804000120ADF806000020ADF872
:1014B0000A000220ADF80C0001A93E4802F039FCF8
:1014C00001213C4802F086FE08213A4802F0C5FF9F
:1014D0000121384802F072FF0121364802F06EFE09
:1014E00009B030BD30B589B005460C460121022057
:1014F00001F06BFF0121082001F05AFF0220ADF836
:10150000200018208DF8230003208DF8220008A960
:10151000274801F091FCADF81850ADF814400020B8
:10152000ADF81A00ADF8160005A9204802F0EAFA55
:101530007020ADF804000120ADF806000020ADF8E1
:101540000A000220ADF80C0001A9184802F0F1FBD6
:101550000121164802F03EFE0821144802F07DFFEA
:101560000121124802F02AFF0121104802F026FE54
:1015700009B030BD30B589B005460C4601210220C6
:1015800001F023FF0121082001F012FF0120ADF836
:10159000200018208DF8230003208DF8220008A9D0
:1015A000034801F049FC07E0000801400004004046
:1015B000000C014000080040ADF81850ADF8144090
:1015C0000020ADF81A00ADF8160005A95B4802F03E
:1015D00099FA7020ADF804000120ADF80600002053
:1015E000ADF80A000220ADF80C0001A9534802F042
:1015F00055FB0121514802F0EDFD08214F4802F052
:1016000023FF01214D4802F0D9FE01214B4802F091
:10161000D5FD09B030BD30B589B005460C46012175
:10162000480301F0C5FE0121102001F0C1FE4FF476
:101630008070ADF8200018208DF8230003208DF86D
:10164000220008A93E4801F0F7FBADF81850ADF8AC
:1016500014400020ADF81A00ADF8160005A939486D
:1016600002F050FA7020ADF804000120ADF8060039
:101670000020ADF80A000220ADF80C0001A93148A5
:1016800002F00CFB01212F4802F0A4FD08212D4897
:1016900002F0DAFE01212B4802F090FE01212948D8
:1016A00002F08CFD09B030BD30B589B005460C465E
:1016B0000121480301F07CFE0121102001F078FE99
:1016C0004FF40070ADF8200018208DF8230003209F
:1016D0008DF8220008A91A4801F0AEFBADF81850A9
:1016E000ADF814400020ADF81A00ADF8160005A9B9
:1016F000144802F007FA7020ADF804000120ADF89C
:1017000006000020ADF80A000220ADF80C0001A987
:101710000C4802F00EFB01210A4802F05BFD082193
:10172000084802F09AFE0121064802F047FE012116
:10173000044802F043FD09B030BD00000004004041
:10174000001001400034014010B540F22261F7481A
:1017500002F0CCFF40F29351F44802F0C9FF10BDF3
:1017600010B540F22C61F14802F0C0FF40F28A51FE
:10177000EE4802F0BDFF10BD10B540F22261EB480B
:1017800002F0B4FF40F24151E84802F0B1FF10BD51
:1017900010B540F22261E54802F0A8FF40F22D5159
:1017A000E24802F0A5FF10BD10B540F22261DF480B
:1017B00002F09CFF40F21951DC4802F099FF10BD85
:1017C00010B540F27261D94802F090FF40F2935197
:1017D000D64802F08DFF10BD10B540F28661D348A7
:1017E00002F084FF40F29351D04802F081FF10BD17
:1017F00010B540F29A61CD4802F078FF40F2935163
:10180000CA4802F075FF10BD10B540F29651C748A6
:1018100002F06CFF40F22561C44802F069FF10BD80
:1018200010B54FF4AF61C14802F060FF40F2436170
:10183000BE4802F05DFF10BD10B540F2B451BB4888
:1018400002F054FF40F22561B84802F051FF10BD8C
:1018500010B54FF4B961B54802F048FF40F2256178
:10186000B24802F045FF10BD10B540F2DC51AF4860
:1018700002F03CFF40F22561AC4802F039FF10BD98
:1018800010B540F29651A94802F030FF40F20761CE
:10189000A64802F02DFF10BD10B540F29651A348A6
:1018A00002F024FF40F2F351A04802F021FF10BDE6
:1018B00010B540F296519D4802F018FF40F2DF51FA
:1018C0009A4802F015FF10BD10B540F296519748A6
:1018D00002F00CFF40F24361944802F009FF10BD92
:1018E00010B540F26E51914802F000FF4FF4C26112
:1018F0008E4802F0FDFE10BD10B54FF4AA618B4872
:1019000002F0F4FE4FF4C261884802F0F1FE10BD0F
:1019100010B54FF4AF61854802F0E8FE40F2256152
:10192000824802F0E5FE10BD10B540F2AA517F4892
:1019300002F0DCFE40F24C617C4802F0D9FE10BDA2
:1019400010B540F2AA51794802F0D0FE40F26A6127
:10195000764802F0CDFE10BD10B540F2DC51734860
:1019600002F0C4FE40F2DC51704802F0C1FE10BD2E
:1019700010B56F480068012806D16D48001D006849
:1019800010B9FFF7F9FE0CE06948001D0068012856
:1019900005D16748006810B9FFF712FF01E0FFF7B3
:1019A000D3FE10BD10B562480068012806D160481A
:1019B000001D006810B9FFF7DFFE0CE05C48001D59
:1019C0000068012805D15A48006810B9FFF7F8FEF1
:1019D00001E0FFF7B9FE10BD10B5554800680128B9
:1019E0000ED15348001D006850B940F2F5514F48E0
:1019F00002F07CFE40F2AE514C4802F079FE41E02C
:101A00004B48001D006801280DD14948006850B9B5
:101A100040F20961454802F069FE40F2C251434874
:101A200002F066FE2EE043480068012811D14048CC
:101A3000001D006868B93E48006850B940F2F55191
:101A40003A4802F053FE40F29A51384802F050FEF4
:101A500018E0384808300068012811D13448001DCA
:101A6000006868B93248006850B940F21D612F48DB
:101A700002F03CFE40F2C2512C4802F039FE01E077
:101A8000FFF76EFE10BD10B52B480068012806D187
:101A90002948001D006810B9FFF7CEFE0CE026486B
:101AA000006838B92448001D0068012802D1FFF7FA
:101AB000E7FE01E0FFF7B4FE10BD10B51E48006858
:101AC000012806D11C48001D006810B9FFF7B4FEBC
:101AD0000CE01948006838B91748001D0068012853
:101AE00002D1FFF7CDFE01E0FFF79AFE10BD10B561
:101AF00011480068012806D10F48001D006810B980
:101B0000FFF79AFE0CE00C48006838B90A48001D3F
:101B10000068012802D1FFF7B3FE01E0FFF774FE71
:101B200010BD70B50446012511E00000000400401E
:101B3000180122423401214238812142FFF718FF67
:101B4000012001F02CF8641E0CB9002501E0002DE5
:101B5000F4D100BF70BD70B50446012508E0FFF761
:101B600021FF012001F01BF8641E0CB9002501E0E3
:101B7000002DF4D100BF70BD70B50446012508E00A
:101B8000FFF72AFF012001F00AF8641E0CB90025B6
:101B900001E0002DF4D100BF70BD70B504460125F1
:101BA00008E0FFF7A4FF012000F0F9FF641E0CB964
:101BB000002501E0002DF4D100BF70BD70B50446D2
:101BC000012508E0FFF75FFF012000F0E8FF641E39
:101BD0000CB9002501E0002DF4D100BF70BD70B537
:101BE0000446012508E0FFF768FF012000F0D7FF59
:101BF000641E0CB9002501E0002DF4D100BF70BDBA
:101C000010B540F26E51F94802F070FD4FF4AF612B
:101C1000F64802F06DFD10BD70B50446012508E0E0
:101C2000FFF7EEFF012000F0BAFF641E0CB900259B
:101C300001E0002DF4D100BF70BD10B540F24A6143
:101C4000EA4802F053FD4FF4C861E84802F050FD45
:101C500010BD70B50446012508E0FFF7EEFF012036
:101C600000F09DFF641E0CB9002501E0002DF4D1A9
:101C700000BF70BD10B504462046FFF7CDFF10BD74
:101C800010B504462046FFF7E4FF10BD70B50446CA
:101C900001260025C820FFF7BFFF15E0FFF7B0FFC2
:101CA000D348006801280FD1D148001D00680128E1
:101CB0000AD16D1CA54204D11420FFF7ADFF002608
:101CC00004E0C820FFF7A8FF002EE7D100BF70BDD9
:101CD00070B5044601260025C820FFF7BAFF15E0BD
:101CE000FFF7ABFFC248001D006801280ED1C048B5
:101CF000006801280AD16D1CA54204D11420FFF709
:101D0000A8FF002604E0C820FFF7A3FF002EE7D1BC
:101D100000BF70BD10B540F21361B44802F0E6FC9C
:101D200040F20E61B14802F0E3FC10BD70B505460B
:101D30000124C820FFF78DFF0CE0FFF7EBFFAC4854
:101D4000001D0068012805D1A9480068012801D1BB
:101D5000002401E0002CF0D100BF70BD70B5044636
:101D600001260025C820FFF774FF12E0FFF765FF8A
:101D70009F48001D006801280BD19D48006801287C
:101D800007D16D1CA54201D1002604E0C820FFF751
:101D900060FF002EEAD100BF70BD2DE9F04104467E
:101DA000002501279620FFF737FF23E0FFF728FFE4
:101DB0009048006801281DD16D1CA54209D106E09C
:101DC0000120FFF729FFFFF7C7FD002700E0F7E735
:101DD00010E096269620FFF71FFF08E00220FFF78D
:101DE0001BFF8448006808B9002602E0761E002E1A
:101DF000F4D100BF002FD9D1BDE8F0812DE9F04129
:101E00000446002501279620FFF723FF23E0FFF774
:101E100014FF7848006801281DD16D1CA54209D126
:101E200006E05020FFF715FFFFF796FD002700E0C2
:101E3000F7E710E096269620FFF70BFF08E0042056
:101E4000FFF707FF6B48006808B9002602E0761E1E
:101E5000002EF4D100BF002FD9D1BDE8F08110B51C
:101E600004460FE040F2DC51604802F03FFC40F2D3
:101E7000DC515E4802F03CFC012000F090FE641E44
:101E800004B900E0EEE700BF10BD70B500240125E5
:101E90001BE0FFF7F8FD564814300068012814D104
:101EA000641C012C0ED10BE040F2DC514F4802F0D3
:101EB0001DFC40F2DC514D4802F01AFC002500E008
:101EC000F2E702E0FA20FFF779FE002DE1D170BDC4
:101ED00070B5002401251BE0FFF7D5FD4448143000
:101EE0000068012814D1641C032C0ED10BE040F2D1
:101EF000DC513E4802F0FAFB40F2DC513B4802F074
:101F0000F7FB002500E0F2E702E06420FFF756FE51
:101F1000002DE1D170BD70B50024012528E0FFF748
:101F2000B2FD334814300068012821D1641C042C10
:101F30001BD119E030480068A0B92F48001F006885
:101F400080B9A020FFF729FE0BE0FEF7D6FF40F294
:101F5000DC51264802F0CAFB40F2DC51234802F073
:101F6000C7FBF2E7FFF78FFDE4E7FA20FFF726FE55
:101F7000002DD4D170BD70B50125002440F226207B
:101F8000FFF7E9FD13E0FFF70DFD19481430006875
:101F900001280CD1641C032C06D103E0FFF7DCFC04
:101FA000002500E0FAE702E0FA20FFF7D4FD002D5B
:101FB000E9D170BD70B50024012524E0FFF797FD3D
:101FC0000B481430006801281DD1641C032C17D164
:101FD00014E040F2DC51054802F088FB40F2DC518D
:101FE000024802F085FB002509E0000000040040E3
:101FF000180122422C01214238812142E9E702E006
:10200000FA20FFF7CAFD002DD8D170BD70B50024AD
:1020100001251AE0FFF737FDBC480068012814D1FC
:10202000641C052C0ED10BE040F2DC51B84802F0E4
:102030005DFB40F2DC51B64802F05AFB002500E09F
:10204000F2E702E0FA20FFF7B9FD002DE2D170BD02
:1020500070B5044601250EE00120AC4964310860EA
:102060000020AC49C1F89401012000F098FD641EE5
:102070000CB9002501E0002DEED100BF70BD70B598
:10208000044601250DE00020A049643108600120CC
:10209000A049C1F8940100F082FD641E0CB900252E
:1020A00001E0002DEFD100BF70BD70B504460125E1
:1020B0000CE001209549643108609649C1F894010B
:1020C00000F06DFD641E0CB9002501E0002DF0D17B
:1020D00000BF70BD10B54FF49670FFF79DFD4FF433
:1020E000C870FFF7BCFE10BD10B54FF41670FFF7B7
:1020F00093FD4FF4C870FFF7B2FE10BD10B54FF45A
:102100009170FFF7A6FD4FF4C870FFF7A8FE10BD51
:1021100010B540F23520FFF79CFD4FF49670FFF7A5
:102120009EFE10BD70B501250024C820FFF7F9FC04
:1021300013E0FFF71DFC7548006801280DD1641CF1
:102140004FF4967000F02BFD042C06D103E0FFF74E
:1021500003FC002500E0FAE700BF002DE9D170BDC7
:1021600010B56420FFF7F7FC28E0FFF71BFC674879
:102170001438006810BB654810380068F0B966482C
:102180000068012817D065480068012813D063480B
:10219000001D006801280ED05F480838006801283B
:1021A00009D05E48001F0068012804D05748001F6E
:1021B0000068012802D1FFF7CFFB00E0D5E700BFA0
:1021C00010BD10B55020FFF7C6FC28E0FFF7EAFB72
:1021D0004E481438006810BB4C4810380068F0B9FD
:1021E0004D480068012817D04C480068012813D0DA
:1021F0004A48001D006801280ED04748083800688A
:10220000012809D04548001F0068012804D03F4834
:10221000001F0068012802D1FFF79EFB00E0D5E710
:1022200000BF10BD10B501244FF4FA70FFF7C6FCD3
:102230002BE0FFF728FC39482830006828BB3748D6
:102240002430006808BB35482C300068012809D0CC
:102250002E482C380068012804D02C48083000682B
:10226000012812D12D4820300068012809D02748C4
:1022700024380068012804D0244820380068012848
:1022800003D1FFF769FB002401E0002CD1D100BF8E
:1022900010BD70B50125002417E0FFF769FB1B484E
:1022A000001F0068012810D1641C4FF4967000F0E4
:1022B00076FC022C06D103E0FFF74EFB002500E080
:1022C000FAE702E0322000F06AFC002DE5D170BD93
:1022D00070B50125002440F27E40FFF73CFC12E07F
:1022E000FFF760FB0948006801280CD1641C022C30
:1022F00006D103E0FFF730FB002500E0FAE702E03B
:10230000C820FFF728FC002DEAD170BD2C01224225
:1023100000040040000022423C0121421081214281
:102320000EB50121084601F050F8C720ADF80400B1
:1023300041F61F40ADF800000020ADF80600ADF8F2
:10234000020069464FF0804001F0DCFB012211469B
:10235000900701F04EFF00214FF0804001F02EFF6A
:102360000EBDD348806940F00800D1498861D1484A
:10237000006820F47F40CF4908600846006840F4B8
:102380004C500860CA48806940F00400C849886120
:10239000C948006820F47060C749086008460068B2
:1023A00040F400600860C4480C30006840F004004D
:1023B000C1490C31086070471CB50221002000F0B3
:1023C00051FE042002F05DFA00208DF804000C207C
:1023D0008DF805000420009001208DF80600684665
:1023E00002F0D8F91CBD08B54FF4A06001F048FA1E
:1023F00008208DF8000001208DF8010000208DF8E4
:1024000002008DF80300684601F03FFA1C208DF8A9
:10241000000000208DF801008DF8020001208DF8E9
:102420000300684601F031FA08BD2DE9F04F87B08E
:1024300007460D461646A148008802F05DFC029052
:10244000384602F041FC9E49019002F069FC834647
:10245000029902F05BFB824602F01AFC8046994822
:10246000008802F049FC0290284602F02DFC9449B5
:10247000019002F055FC8346029902F047FB824628
:1024800002F006FC06909048008802F035FC0290AD
:10249000304602F019FC8A49019002F041FC834663
:1024A000029902F033FB824602F0F2FB81464FEACA
:1024B0000841069841EA002040EA0904C4F3C40038
:1024C0000390C4F385200490C4F3C440059005989C
:1024D000C102049801EB40110398084480B207B090
:1024E000BDE8F08F2DE9F0410027B84600214FF0FC
:1024F000804002F0F7F80820012181404209920053
:1025000002F1E022C2F8001100BF0121C00601F073
:1025100055FE00BF6D48007804282ED1781C87B284
:10252000052F14DB6A4800886A490988084468490D
:102530000880694800886949098808446649088014
:10254000674800886749098808446549088064200D
:1025500000F025FB01205D49087000205D490860FE
:102560005E4908605F49086000214FF0804002F03A
:10257000B9F80121880701F021FE0A2FCADB54486F
:102580000088062190FBF1F04C49088052480088F1
:10259000062190FBF1F04B49088051480088062144
:1025A00090FBF1F04849088080E000204E49086027
:1025B00046480078042879D14648008884B24748C4
:1025C000008885B24748008886B233462A462146AD
:1025D00046A002F061F943480268404801683D485E
:1025E0000068FFF722FF8046642000F0D8FA01203F
:1025F0003649087000203749086038490860394971
:10260000086000214FF0804002F06CF8012188073B
:1026100001F0D4FDA54202DD3948056001E03848EB
:10262000046037480068B04201DA35480660B4F506
:10263000C87F08DDB5F5967F05DA32A002F02CF9E7
:102640000320BDE8F081B4F5C87F0ADDB5F5C87F89
:1026500007DDB6F5C87F04DD2BA002F01DF90220CE
:10266000EFE7701B142804DA28A002F015F9012006
:10267000E7E7D22D08DAE62C06DAD22E04DA24A017
:1026800002F00AF90420DCE71D480068A04204D1EA
:102690001FA002F001F90420D3E719480068B042F6
:1026A00004D11CA002F0F8F80520CAE77DE700007D
:1026B00000100240040C01400008014024000020EA
:1026C00000007F4326000020280000200C0000208E
:1026D0002A000020000000202C0000200400002020
:1026E0002E000020080000203C00002020523D2544
:1026F000642020473D25642020423D25640D0A00CA
:1027000040000020BAEC0000B0D70000C2CC0000AE
:10271000BADA0000C0B6000070B504460125022CEC
:1027200002D10120FFF7B2FA032C02D10220FFF7F9
:10273000ADFA042C02D10320FFF7A8FA052C02D130
:102740000420FFF7A3FA6420FFF789FB4FF4FA7027
:10275000FFF701FA37E0FFF725F9EE48006818B1F6
:10276000EC48001D006870BBEB480068012808D0E9
:10277000EA480068012804D0E848001D00680128E4
:1027800021D1E54808380068012809D0E348001F36
:102790000068012804D0DF4810300068012812D1F9
:1027A0000FE04FF47A70FFF7D6F940F2DC51DC48C5
:1027B00001F09CFF40F2DC51D94801F099FF00255F
:1027C00000E0EEE700BF002DC5D170BD70B5044636
:1027D0000125022C02D10120FFF77AFA032C02D145
:1027E0000220FFF775FA042C02D10320FFF770FADC
:1027F000052C02D10420FFF76BFA4FF4FA70FFF7B3
:1028000090F937E0FFF7CEF8C248006818B1C14828
:10281000001D006870BBC0480068012808D0BF4890
:102820000068012804D0BD48001D0068012821D19E
:10283000B94808380068012809D0B848001F006866
:10284000012804D0B34810300068012812D10FE0ED
:102850004FF47A70FFF765F940F2DC51B04801F0AF
:1028600045FF40F2DC51AE4801F042FF002500E098
:10287000EEE700BF002DC5D170BD70B5044601263E
:102880000025022C02D10120FFF700FA032C02D10F
:102890000220FFF7FBF9042C02D10320FFF7F6F921
:1028A000052C02D10420FFF7F1F96420FFF7D7FAD5
:1028B0004FF47A70FFF74FF911E0FFF773F895487E
:1028C0001430006801280AD16D1C032D04D1642046
:1028D000FFF741F9002604E0C820FFF73CF9002E7D
:1028E000EBD100BF70BD70B5044601260025022C57
:1028F00002D10120FFF7ECF9032C02D10220FFF7EF
:10290000E7F9042C02D10320FFF7E2F9052C02D1EC
:102910000420FFF7DDF94FF47A70FFF71CF911E09E
:10292000FFF740F87B481430006801280AD16D1C7D
:10293000032D04D16420FFF70EF9002604E0C8201F
:10294000FFF709F9002EEBD100BF70BD70B504464A
:102950000125022C02D10120FFF798F9032C02D1A6
:102960000220FFF793F9042C02D10320FFF78EF920
:10297000052C02D10420FFF789F94FF4FA70FFF714
:10298000EAF836E0FFF70EF86248006818B16148CF
:10299000001D006868BB60480068012808D05F48D7
:1029A0000068012804D05D48001D0068012820D17E
:1029B000594808380068012809D05848001F0068A5
:1029C000012804D0534810300068012811D10EE0CE
:1029D000C820FFF7C0F840F2DC51514801F086FEF4
:1029E00040F2DC514E4801F083FE002500E0EFE7A5
:1029F00000BF002DC6D170BD70B504460125022C64
:102A000002D10120FFF764F9032C02D10220FFF765
:102A10005FF9042C02D10320FFF75AF9052C02D1EB
:102A20000420FFF755F94FF4FA70FFF794F836E0F9
:102A3000FEF7B8FF3748006818B13648001D006837
:102A400068BB35480068012808D034480068012870
:102A500004D03248001D0068012820D12E480838D3
:102A60000068012809D02D48001F0068012804D003
:102A7000284810300068012811D10EE0C820FFF767
:102A80006AF840F2DC51264801F030FE40F2DC5199
:102A9000234801F02DFE002500E0EFE700BF002DE8
:102AA000C6D170BD70B504460125022C02D10120AB
:102AB000FFF7ECF8032C02D10220FFF7E7F8042C13
:102AC00002D10320FFF7E2F8052C02D10420FFF722
:102AD000DDF84FF44870FFF73EF870BD70B504465E
:102AE0000125022C02D10120FFF7F2F8032C02D1BC
:102AF0000220FFF7EDF8042C02D10320FFF7E8F8DD
:102B0000052C02D10420FFF7E3F84FF44870FFF7DB
:102B100022F870BD180122423C012142108121425D
:102B20000004004010B56FF0040000F0F8FE2E48DD
:102B300000682E49B0FBF1F02D4908700846007876
:102B400000EB4001C1EBC0104FF6FF7101EAC0007D
:102B50002849088010BD0146254A12784A434FF0A3
:102B6000E0235A6100229A611A46126942F001027A
:102B70001A6100BF4FF0E022106900F001021AB1A3
:102B800000F48032002AF5D04FF0E022126922F0E2
:102B900001024FF0E0231A6100229A61704701465A
:102BA000144A12884A434FF0E0235A6100229A6186
:102BB0001A46126942F001021A6100BF4FF0E0228A
:102BC000106900F001021AB100F48032002AF5D039
:102BD0004FF0E022126922F001024FF0E0231A6167
:102BE00000229A61704700001000002000127A0055
:102BF0004400002046000020014600BF704700BF8F
:102C0000494A128802F04002002AF9D0C2B2464B6B
:102C10001B1D1A80704710B586B00446012144F28E
:102C2000040000F0C5FB4FF40070ADF81400032061
:102C30008DF8160018208DF8170005A93B4800F004
:102C4000FBF84FF48060ADF8140004208DF81700F5
:102C500005A9364800F0F0F825208DF80000032083
:102C60008DF801008DF8020001208DF80300684600
:102C700000F00BFE01940020ADF80800ADF80A004A
:102C8000ADF80C00ADF810000C20ADF80E0001A955
:102C9000254800F034FC012240F22551224800F082
:102CA000C6FC0121204800F0B6FC06B010BD10B5EE
:102CB00040F225511C4800F09FFD10B31A4800F067
:102CC0001BFDC4B21A48008800F40040C8B9184877
:102CD000008800F4804060B10A2C03D00020144921
:102CE000088020E01248008840F400401049088025
:102CF00019E00D2C06D10E48008840F480400C49A4
:102D0000088010E00A480088C0F30D0009490C54FF
:102D100007480088401C0649088008460088C728E4
:102D200001DD0020088010BD00380140000801408E
:102D30004C000020640000200948804709480047F3
:102D4000FEE7FEE7FEE7FEE7FEE7FEE7FEE7FEE75B
:102D5000FEE7FEE704480549054A064B70470000B8
:102D6000EB0B0008310100089001002090070020C3
:102D7000900300209003002010B50446CC48844204
:102D800008D10121042000F02DFB0021042000F0D7
:102D900029FB46E0C748844208D10121082000F001
:102DA00021FB0021082000F01DFB3AE0C2488442CC
:102DB00008D10121102000F015FB0021102000F0A7
:102DC00011FB2EE0BD48844208D10121202000F0F3
:102DD00009FB0021202000F005FB22E0B8488442D6
:102DE00008D10121402000F0FDFA0021402000F030
:102DF000F9FA16E0B348844208D10121802000F09E
:102E0000F1FA0021802000F0EDFA0AE0AE48844299
:102E100007D10121801500F0E5FA0021A01500F08E
:102E2000E1FA10BD10B50121084600F0DBFA0021DF
:102E3000012000F0D7FA10BD2DE9F041024600252F
:102E40000026002000230024002791F803C00CF086
:102E50000F0591F803C00CF0100CBCF1000F03D06B
:102E600091F802C04CEA050591F800C0BCF1000FD2
:102E700031D0146800202BE04FF0010C0CFA00F365
:102E8000B1F800C00CEA03069E4220D183004FF047
:102E90000F0C0CFA03F7BC4305FA03FC4CEA0404DC
:102EA00091F803C0BCF1280F06D14FF0010C0CFAC9
:102EB00000FCC2F814C00AE091F803C0BCF1480F4E
:102EC00005D14FF0010C0CFA00FCC2F810C0401CF8
:102ED0000828D1D31460B1F800C0BCF1FF0F34DD75
:102EE000546800202EE000F1080C4FF0010808FAA9
:102EF0000CF3B1F800C00CEA03069E4221D1830016
:102F00004FF00F0C0CFA03F7BC4305FA03FC4CEA34
:102F1000040491F803C0BCF1280F05D100F1080C9E
:102F200008FA0CF8C2F8148091F803C0BCF1480FFD
:102F300007D100F1080C4FF0010808FA0CF8C2F8AC
:102F40001080401C0828CED35460BDE8F0814FF6B5
:102F5000FF710180022181700421C1707047024617
:102F6000002093680B400BB1012000E00020704767
:102F70000146886880B2704702460020D3680B4043
:102F80000BB1012000E0002070470146C86880B204
:102F9000704701617047416170470AB1016100E00B
:102FA00041617047C16070474FF480320A438261CB
:102FB0008161826182698269704702460020434BC9
:102FC00018684FF68073184040EA021008433F4BE0
:102FD000186070473E49C8617047F0B50A46002343
:102FE00000240021002500F00046B6F1004F02D178
:102FF000364EF16901E0354E7168C0F3034583B286
:1030000000F44016B6F5401F08D121F070612F4E34
:10301000766826F070662D4F7E6012E000F4801610
:10302000B6F5801F06D1032606FA05F4A14341F048
:10303000706106E0460D360103FA06F6B14341F031
:10304000706122B1460D360103FA06F6314300F0F5
:103050000046B6F1004F02D11C4EF16101E01B4E5B
:103060007160F0BD30B500228B071C0F0F2303FAEF
:1030700004F2164B08338C1053F824309343134C4E
:1030800008348D1044F8253023468C1053F8243032
:103090008C07240F00FA04F423430C4C08348D10E1
:1030A00044F8253030BD0A49DC3108607047000023
:1030B00000080140000C01400010014000140140D4
:1030C00000180140001C01400020014000000140A8
:1030D00000002042DF48006840F00100DD49086040
:1030E00008464068DC490840DA49486008460068FC
:1030F000DA490840D74908600846006820F4802073
:1031000008600846406820F4FE0048604FF41F0045
:1031100088607047CF49096821F48031CD4A116039
:103120001146096821F480211160B0F5803F03D079
:10313000B0F5802F0ED106E0C649096841F4803110
:10314000C44A116007E0C349096841F4A021C14A9B
:10315000116000E000BF00BF704710B501460022BB
:10316000002300204A11012A02D1BA4C236806E04C
:10317000022A02D1B74C236A01E0B64C636A01F01F
:103180001F02012494401C400CB1012000E00020EB
:1031900010BD38B5002000900024002500BF31206C
:1031A000FFF7DBFF05460098401C00900098B0F543
:1031B000A06F01D0002DF2D03120FFF7CEFF08B173
:1031C000012400E00024204638BD01460020A14A29
:1031D000106820F0F80040EAC10010607047A04974
:1031E00008607047024600209A4B586820F47C1013
:1031F00042EA01031843974B5860704798490866A4
:10320000704701460020934A506820F003000843AD
:10321000506070478F48406800F00C0070470146CE
:1032200000208C4A506820F0F0000843506070473E
:1032300001460020874A506820F4E060084350604F
:10324000704701460020834A506820F4605040EAED
:10325000C1005060704729B17E4A527A02437D4BCB
:103260005A7204E07B4A527A82437A4B5A72704710
:103270007B49D8310860704701460020754A506884
:1032800020F440400843506070470021714A2032CA
:103290001170704A82F82010012802D004280AD147
:1032A00004E001216B4A2032117005E00521694AD2
:1032B0002032117000E000BF00BF7047694908600C
:1032C00070476449096A0143624A1162704765495F
:1032D00044390860704730B50021002200240023E3
:1032E0005C4D6D6805F00C0121B1042905D0082959
:1032F00023D105E05C4D056022E05B4D05601FE0D9
:10330000544D6D6805F47012524D6D6805F48034AB
:10331000022505EB92421CB9544D554305600BE064
:103320004C4D6D6805F400351DB1504D5543056099
:1033300002E04D4D5543056002E04B4D056000BF76
:1033400000BF444D6D6805F0F0010909484D6B5C04
:103350000568DD4045603F4D6D6805F4E061090A90
:10336000434D6B5C4568DD4085603A4D6D6805F402
:103370006051C90A3E4D6B5C4568DD40C560354D06
:103380006D6805F44041890B3A4D6B5CC568B5FB2F
:10339000F3F5056130BD29B12E4A526902432D4B28
:1033A0005A6104E02B4A526982432A4B5A617047A2
:1033B00029B1284A92690243264B9A6104E0254AC2
:1033C00092698243234B9A61704729B1214AD2699D
:1033D0000243204BDA6104E01E4AD26982431D4B4E
:1033E000DA61704729B11B4AD2680243194BDA608F
:1033F00004E0184AD2688243164BDA60704729B15C
:10340000144A12690243134B1A6104E0114A12690B
:103410008243104B1A617047124940390860704767
:103420000F49C86470470B49C87170470948406A22
:1034300040F0807007494862704701460020054A05
:1034400092680A400AB1012000E00020704701495B
:1034500088727047001002400000FFF8FFFFF6FE80
:10346000000042428004424200127A0000093D00FE
:103470004E0000205E00002010B50446FB48844248
:1034800009D101218803FFF7ADFF00214FF48040EF
:10349000FFF7A8FF32E0F648844209D10121480431
:1034A000FFF7ADFF00214FF40030FFF7A8FF25E044
:1034B000F048844209D101218804FFF7A0FF0021D0
:1034C0004FF48020FFF79BFF18E0EB48844209D1BE
:1034D0000121C804FFF793FF00214FF40020FFF7FC
:1034E0008EFF0BE0E548844208D101210805FFF773
:1034F00086FF00214FF48010FFF781FF10BD2DE9FA
:10350000F04786B005460E460024A24600BFA146FD
:103510000027B08900B100BF2F462C8A4CF6FF70FF
:103520000440F08804432C82AC894EF6F31004402A
:10353000B08831890843718908430443AC81AC8A5F
:103540004FF6FF400440B0890443AC8201A8FFF766
:10355000C2FEC648874202D1DDF810A001E0DDF8C6
:103560000CA0A88900F4004040B10AEBCA0000EBAF
:103570000A1031684900B0FBF1F807E00AEBCA0015
:1035800000EB0A1031688900B0FBF1F86420B8FB49
:10359000F0F004012009642101FB1089A88900F4DE
:1035A000004040B1322000EBC900B0FBF1F000F068
:1035B0000700044308E0322000EB09106421B0FB4F
:1035C000F1F000F00F0004432C8106B0BDE8F08755
:1035D0004FF41651016000218180C18001810C21CE
:1035E000418100218181704710B502460020108A78
:1035F0004FF2FF0318400B884C8823438C882343E9
:10360000CC8823431843108210BD002101804180E3
:103610008180C180704721B1828942F40052828149
:1036200004E082894DF6FF731A4082817047F0B53D
:103630000346002400260025002040F66A17B94200
:1036400000D100BF1846C1F3421401F01F06012744
:1036500007FA06F5012C01D10C3004E0022C01D14F
:10366000103000E014301AB107682F43076002E001
:103670000768AF430760F0BD1AB1838A0B438382AA
:1036800002E0838A8B4383827047028A4FF6F0738D
:103690001A400282028A0A430282704782894FF2EC
:1036A000FF731A40828182890A438281704721B167
:1036B000828942F00202828104E082894FF6FD7322
:1036C0001A4082817047028A4FF6DF731A400282E5
:1036D000028A0A430282704721B1028A42F4804280
:1036E000028204E0028A4BF6FF731A40028270479E
:1036F000C1F308028280704701468888C0F3080041
:103700007047818941F0010181817047028BD2B2FB
:103710000283028B42EA012202837047028B02F489
:103720007F420283028B0A430283704721B1828A5F
:1037300042F02002828204E0828A4FF6DF731A4050
:103740008282704721B1828A42F01002828204E0B4
:10375000828A4FF6EF731A408282704721B1828AC3
:1037600042F00802828204E0828A4FF6F7731A4020
:103770008282704721B1828942F40042828103E053
:103780008289C2F30E028281704721B1828A42F49B
:103790000062828204E0828A4FF2FF731A408282C2
:1037A0007047828A4FF6FB731A408282828A0A43EC
:1037B0008282704721B1828A42F00202828204E052
:1037C000828A4FF6FD731A408282704702460020BB
:1037D000B1F5007F00D100BF13880B400BB1012071
:1037E00000E00020704701F40072B2F5007F00D1C4
:1037F00000BFCA430280704770B502460024002310
:103800000025002040F66A16B14200D100BFC1F386
:10381000421501F01F03012606FA03F3012D02D120
:103820009689334006E0022D02D1168A334001E02A
:10383000968A33400C12012606FA04F416883440A6
:1038400013B10CB1012000E0002070BD10B50022C2
:10385000002340F66A14A14200D100BF0A120124DD
:103860009440A3B2DC43048010BD00000038014046
:103870000044004000480040004C00400050004020
:1038800031490143314A1160704770B5002100236E
:103890000F22C47804B32D4C246804F4E064C4F50A
:1038A000E064210AC1F10403CA40447804FA03F138
:1038B0008478144021430901254C0678A1550478E9
:1038C00004F01F050124AC4005786D11AD0005F131
:1038D000E025C5F8004109E0047804F01F05012443
:1038E000AC401C4D0678761145F8264070BD1A4A4A
:1038F0000A400243154B1B1F1A60704739B1134A27
:10390000121D12680243114B1B1D1A6006E00F4A7C
:10391000121D126882430D4B1B1D1A60704704284C
:1039200008D14FF0E021096941F004014FF0E02295
:10393000116107E04FF0E021096921F004014FF027
:10394000E0221161704700000000FA050CED00E074
:1039500000E400E080E100E080FFFF1F10B50446B6
:10396000FE48844208D10121C014FFF73BFD00212D
:10397000E014FFF737FDC4E0B4F1804F08D1012116
:103980000846FFF73CFD00210120FFF738FDB8E0B5
:10399000F348844208D101210220FFF730FD0021C5
:1039A0000220FFF72CFDACE0EE48844208D1012153
:1039B0000420FFF724FD00210420FFF720FDA0E0F4
:1039C000E948844208D101210820FFF718FD0021B1
:1039D0000820FFF714FD94E0E448844208D1012157
:1039E0001020FFF70CFD00211020FFF708FD88E0F4
:1039F000DF48844208D101212020FFF700FD00218B
:103A00002020FFF7FCFC7CE0DA48844208D1012149
:103A10004014FFF7E7FC00216014FFF7E3FC70E0BF
:103A2000D548844209D10121C804FFF7DBFC0021FD
:103A30004FF40020FFF7D6FC63E0D048844209D160
:103A400001210805FFF7CEFC00214FF48010FFF79D
:103A5000C9FC56E0CA48844209D101214805FFF754
:103A6000C1FC00214FF40010FFF7BCFC49E0C54841
:103A7000844208D101214020FFF7C1FC00214020F1
:103A8000FFF7BDFC3DE0C048844208D10121802001
:103A9000FFF7B5FC00218020FFF7B1FC31E0BB4807
:103AA000844208D101218015FFF7A9FC0021A0154F
:103AB000FFF7A5FC25E0B648844209D1012108049E
:103AC000FFF790FC00214FF48030FFF78BFC18E0EB
:103AD000B048844209D101214804FFF783FC00214A
:103AE0004FF40030FFF77EFC0BE0AB48844208D176
:103AF00001218804FFF776FC00214FF48020FFF7B6
:103B000071FC10BD00220288944B98420ED0994B54
:103B100098420BD0B0F1804F08D0914B984205D01D
:103B2000904B984202D0904B984204D14FF68F733D
:103B30001A404B881A438D4B984207D08C4B9842C1
:103B400004D04FF6FF431A40CB881A4302808B887B
:103B500083850B880385814B98420BD0854B984217
:103B600008D08B4B984205D08A4B984202D08A4BA2
:103B7000984201D10B7A038601238382704770B586
:103B8000002400220023058C4FF6FE763540058484
:103B9000028C8388048B4FF68F752C40B51E2C4009
:103BA0000D882C43751E2A400D892A434D882A43CF
:103BB0006A4DA8420BD06F4DA84208D0744DA84260
:103BC00005D0744DA84202D0734DA84213D14FF6D0
:103BD000F7752A404D892A434FF6FB752A408D8898
:103BE0002A434FF6FF652B404FF6FF552B408D893A
:103BF0002B43CD892B4383800483CD888586028423
:103C000070BD70B5002400220023058C4FF6EF76BE
:103C100035400584028C8388048B48F6FF752C4060
:103C20004FF6FF452C400D884FF6FF7606EA052536
:103C30002C434FF6DF752A400D8906EA05152A4305
:103C40004D8806EA05152A43444DA84202D0494D45
:103C5000A8421DD14FF67F752A404D894FF6FF7659
:103C600006EA05152A434FF6BF752A408D8806EAF5
:103C700005152A434FF6FF352B404FF2FF752B40B9
:103C80008D8906EA85052B43CD8906EA85052B43F8
:103C900083800483CD880587028470BD70B50024BD
:103CA00000220023058C4FF6FF6635400584028C08
:103CB0008388848B4FF68F752C404FF6FC752C4013
:103CC0000D882C434FF6FF552A400D894FF6FF769D
:103CD00006EA05252A434D8806EA05252A431F4D95
:103CE000A84202D0234DA8421DD14FF2FF752A40B1
:103CF0004D894FF6FF7606EA05252A434FF6FF3534
:103D00002A408D8806EA05252A434EF6FF752B408A
:103D10004DF6FF752B408D8906EA05152B43CD899D
:103D200006EA05152B4383808483CD88858702842A
:103D300070BD70B5002200230024058C4EF6FF767E
:103D400035400584038C8488828B48F6FF752A40B1
:103D50004FF6FF452A400D8820E00000002C01406E
:103D60000004004000080040000C0040001000402B
:103D70000014004000340140004C0140005001405C
:103D80000054014000180040001C0040002000408A
:103D90000040014000440140004801404FF6FF76DA
:103DA00006EA05252A434DF6FF752B400D8906EAE4
:103DB00005352B434D8806EA05352B43FA4DA842BD
:103DC00002D0FA4DA84208D14BF6FF752C408D89E0
:103DD0004FF6FF7606EA85152C4384808283CD88D2
:103DE000A0F84050038470BD828B4FF2FF331A401D
:103DF0008283828B4FF6FF7303EA01231A43828387
:103E00007047F0B50C461546002200210026078CAD
:103E10004EF6FF7C07EA0C070784828B018C4FF675
:103E2000FF7707EA043640F6FF473A404FF6FF7740
:103E300007EA05273A434FF6FF7707EA03373A4385
:103E4000D94FB8420ED0D94FB8420BD0B0F1804F05
:103E500008D0D74FB84205D0D64FB84202D0D64F7F
:103E6000B84206D14DF6FF77394046F480573943C2
:103E700005E047F6FF57394044F4805739438283C1
:103E80000184F0BD828B4FF6F3731A408283828BDC
:103E90000A4382837047F0B50C4615460022002184
:103EA0000026078C4FF6FF6C07EA0C070784828B0D
:103EB000018C4FF6FF7707EA04264FF60C773A405D
:103EC0004FF6FF7707EA03172F433A43B64FB8423E
:103ED0000ED0B64FB8420BD0B0F1804F08D0B44FDF
:103EE000B84205D0B34FB84202D0B34FB84206D162
:103EF0004FF6FF57394046F48077394305E04FF2DB
:103F0000FF57394044F48077394382830184F0BD00
:103F1000028B4FF2FF331A400283028B4FF6FF737E
:103F200003EA01231A4302837047F0B50C46154695
:103F3000002200210026078C4FF6EF7C07EA0C07D1
:103F40000784028B018C4FF6FF7707EA041640F6D0
:103F5000FF473A404FF6FF7707EA03373A434FF6F9
:103F6000FF7707EA05273A438F4FB8420ED08F4FAD
:103F7000B8420BD0B0F1804F08D08D4FB84205D079
:103F80008C4FB84202D08C4FB84206D14FF6DF7743
:103F9000394046F01007394305E04FF65F77394066
:103FA00044F01007394302830184F0BD028B4FF6C1
:103FB000F3731A400283028B0A4302837047F0B501
:103FC0000C46154600220021068C4FF6FE773E4037
:103FD0000684028B018C4FF60C7632407E1C06EA7A
:103FE00003162E433243704EB0420ED06F4EB04295
:103FF0000BD0B0F1804F08D06D4EB04205D06D4E61
:10400000B04202D06C4EB04206D14FF6FD76314040
:1040100044F00106314305E04FF6F576314044F0B7
:104020000106314302830184F0BD70B505460C469C
:104030005D4885420ED05D4885420BD0B5F1804F7A
:1040400008D05B48854205D05A48854202D05A487C
:10405000854200D100E000BF208850B92389A288A2
:1040600061882846FFF7ABFFE1882846FFF79EFFEF
:1040700025E0208804280AD12389A288618828465F
:10408000FFF753FFE1882846FFF742FF17E020883B
:1040900008280AD12389A28861882846FFF7FBFEF9
:1040A000E1882846FFF7EEFE09E02389A2886188AF
:1040B0002846FFF7A6FEE1882846FFF795FE70BD6B
:1040C0002DE9F04105460C4600260127608808B915
:1040D000022600E00026A088012801D1022700E086
:1040E00001272088A0B92389A28861882846FFF784
:1040F00066FFE1882846FFF759FF23893A46314693
:104100002846FFF712FFE1882846FFF701FF13E07A
:104110002389A28861882846FFF707FFE18828469F
:10412000FFF7F6FE23893A4631462846FFF747FF58
:10413000E1882846FFF73AFFBDE8F0810A884B88FE
:104140001A438B881A43CB881A430B891A434B892D
:104150001A438B891A43A0F8442070474FF6FF7129
:10416000818000210180C18041800172704700215F
:10417000018041808180C180018141818181C18133
:104180007047002101804180012181800021C18090
:10419000018170470021018041808180C1800181BF
:1041A0004181818170470000002C014000340140B2
:1041B0000004004000080040000C004021B10288CB
:1041C00042F00102028004E002884FF6FE731A40BA
:1041D0000280704731B1B0F8442042F40042A0F8A8
:1041E000442005E0B0F84420C2F30E02A0F84420B9
:1041F00070471AB183890B43838102E083898B4323
:10420000838170478182704741EA0203A0F84830F9
:1042100070471AB183890B43838102E083898B4302
:104220008381704701894FF6F87211400181704710
:104230000A46002101894FF68F731940114301810D
:10424000704730B504460D4629462046FFF7F0FF7B
:10425000208940F00700208130BD2DE9F04104465F
:104260000D4616461F46602D06D13B4601223146BB
:104270002046FFF75AFE05E03B4601223146204624
:10428000FFF79DFE29462046FFF7D2FF208940F028
:1042900007002081BDE8F08130B50C46002101897E
:1042A000C9B24FF6FF7505EA032515432543294397
:1042B000018130BD2DE9F04105460E46174698466E
:1042C000002443463A4631462846FFF7E5FF2C894D
:1042D0004FF6F870044044F007044FF68F70044026
:1042E00044F070042C81BDE8F081F0B504460D4621
:1042F00016461F463B46324629462046FFF7CCFF6E
:10430000208940F480402081F0BD01858282704781
:104310000A46002101884FF68F731940114301802E
:104320007047F0B50C4615461E46002100220023BA
:104330000189028B038C4FF6F877394021434FF601
:10434000FC473A4040F201173A434FF6DD773B40D5
:104350004FF6FF7707EA06172F433B43018102839D
:104360000384F0BD0A460021018B4FF68F7319407C
:104370001143018370470A460021018B48F6FF7301
:1043800019404FF6FF7303EA022319430183704774
:104390000A460021818B4FF68F73194011438183A8
:1043A00070470A460021818B48F6FF7319404FF68B
:1043B000FF7303EA022319438183704721B1028806
:1043C00042F08002028004E002884FF67F731A40B8
:1043D0000280704721B1828842F00402828004E0AA
:1043E00082884FF6FB731A408280704721B1828821
:1043F00042F00802828004E082884FF6F7731A4088
:104400008280704721B1828842F00102828004E0FC
:1044100082884FF6FE731A40828070470A46002158
:10442000018B4FF6F77319401143018370470A4619
:104430000021018B4FF2FF7319404FF6FF7303EA1F
:1044400002231943018370470A460021818B4FF6EE
:10445000F77319401143818370470A460021818B0D
:104460004FF2FF7319404FF6FF7303EA022319431B
:10447000818370470A460021018B4FF6FB73194078
:104480001143018370470A460021018B4FF6FF3329
:1044900019404FF6FF7303EA022319430183704763
:1044A0000A460021818B4FF6FB731940114381832B
:1044B00070470A460021818B4FF6FF3319404FF6B3
:1044C000FF7303EA02231943818370470A460021E0
:1044D000018B4FF67F7319401143018370470A46E1
:1044E0000021018BC1F30E014FF6FF7303EA022393
:1044F0001943018370470A460021818B4FF67F7371
:1045000019401143818370470A460021818BC1F312
:104510000E014FF6FF7303EA0223194381837047AC
:104520000A460021018C4FF6FD73194011430184A6
:1045300070470A460021018C4FF6F773194011436A
:10454000018470470A460021018C4FF6DF73194041
:104550004FF6FF7303EA02131943018470470A46BA
:104560000021018C4FF67F7319404FF6FF7303EA69
:1045700002131943018470470A460021018C4FF64B
:10458000FF5319404FF6FF7303EA022319430184D6
:1045900070470A460021018C4FF2FF7319404FF615
:1045A000FF7303EA02231943018470470A4600217E
:1045B000018C4DF6FF7319404FF6FF7303EA023387
:1045C00019430184704730B5002301248C40A3B205
:1045D000048C9C430484048C02FA01F5ADB22C4394
:1045E000048430BD30B5002304248C40A3B2048C75
:1045F0009C430484048C02FA01F5ADB22C4304847C
:1046000030BD70B50346002000241846183001253F
:104610008D40ACB21D8CA5431D8409B1082909D178
:1046200000EB6100056825F070050560056815431D
:1046300005600EE00D1FC5F34E052844056825F4FE
:10464000E045056005684FF6FF7606EA0226354329
:10465000056070BD21B1028842F00202028004E0D0
:1046600002884FF6FD731A400280704721B102881C
:1046700042F00402028004E002884FF6FB731A4005
:104680000280704721B1828842F08002828004E07B
:1046900082884FF67F731A408280704702884FF6F7
:1046A000F7731A40028002880A43028070478288AA
:1046B0004FF68F731A40828082880A438280704747
:1046C00002894FF6F8731A40028102890A43028177
:1046D000704702894FF67F731A40028102890A43AC
:1046E0000281704781847047818570478186704759
:1046F0000187704781877047A0F840107047028893
:104700004FF6FF431A40028002880A430280704736
:104710000146888E70470146088F70470146888F92
:1047200070470146B1F8400070470146888C7047D9
:104730000146088D704702460020138A0B400BB1DA
:10474000012000E000207047CA430282704730B564
:104750000246002000230024158A05EA01039589FA
:1047600005EA010413B10CB1012000E0002030BDC6
:10477000CA43028270470000002044490860091DB6
:104780000860091D0860091D086041483F4914314F
:104790000860704700213D498279002A3AD00A46D4
:1047A000126803689A430B461A600A1D1268036870
:1047B0009A430B1D1A60027911440A6803681A4370
:1047C0000A60324A0832126803689A432F4B083352
:1047D0001A601A1D126803689A432C4B0C331A6036
:1047E0004279102A0ED11A1F126803681A43274B08
:1047F00008331A601A1D126803681A43234B0C33DE
:104800001A600DE02149427911440A6803681A438D
:104810000A6005E0027911440A6803689A430A6055
:1048200070470021016001710C21417100218171EB
:1048300070471649103109680143144A103211605B
:10484000704701460020114A143212680A400AB12A
:10485000012000E0002070470C49143108607047C7
:10486000014600200022094B1B6803EA0102074BA6
:1048700014331B680B4013B10AB1012000E0002083
:10488000704702491431086070470000000401407D
:10489000FFFF0F00704700000FB4044910B503AAD2
:1048A000029800F0D3F810BC5DF814FB480000201B
:1048B0002DE9F0410E460446002020622046E168C2
:1048C000884730B3252805D0D4E901219047206AD4
:1048D000401CF2E7E168204600278847050018D011
:1048E000A5F14100192802D820354FF4006732465F
:1048F000294620462760FBF755FC40B1012804D02B
:10490000F61D26F007060836D8E7361DD6E72846F6
:10491000DAE7206ABDE8F0812DE9F041064600247F
:1049200010687529314616A510D0AFF30080002815
:1049300002DA404213A507E031688A0701D512A5C3
:1049400002E0490704D511A5012401E0AFF300807E
:1049500000210A2206F1240709E0B0FBF2FCB0FBBB
:10496000F2F302FB1C00303078541846491C002832
:10497000F3D123462A463046BDE8F04100F00CB89A
:10498000000000002D0000002B00000020000000AF
:1049900070477047704770472DE9F0470D469946BC
:1049A0009246044600F124080168880604D5E069AF
:1049B00021F01001216000E00120A84201DD471B29
:1049C00000E00027A1697A1902EB0900081AA0612A
:1049D0002078C00602D42046AFF30080002608E00D
:1049E000D4E901211AF806009047206A401C761C81
:1049F00020624E45F4DB2078C0060AD52046AFF38E
:104A0000008006E0D4E9012130209047206A401C54
:104A10002062381EA7F10107F4DC07E0D4E9012188
:104A200018F805009047206A401C2062281EA5F156
:104A30000105F3DC2046AFF300802078000602D5A4
:104A40000220BDE8F0870120FBE70000074B70B5AE
:104A50000D467B4400F011F80446284600F020F88B
:104A600010B14FF0FF3070BD204670BDA9E1FFFFCF
:104A700001694A1C02610878704700B58FB0CDE922
:104A800001310021059105497944CDE90310114612
:104A90006846FFF70DFF0FB000BD0000E5FFFFFF08
:104AA000007B00F080007047754600F02BF8AE46A2
:104AB00005006946534620F00700854618B020B52A
:104AC000FEF748F9BDE820404FF000064FF0000720
:104AD0004FF000084FF0000B21F00701AC46ACE8A6
:104AE000C009ACE8C009ACE8C009ACE8C0098D4613
:104AF000704710B50446AFF300802046BDE8104073
:104B0000FBF762BB004870472C0100204FF47F0C7C
:104B10001CEAD0121EBF1CEAD11392EA0C0F93EAD2
:104B20000C0F00F0858090EA010F48BF42F48072BC
:104B300040F4000C41F400002CF07F4120F07F4055
:104B400000B58142A2EB03020FF2081CACEB504E01
:104B5000C0F100009EF800E04FEA4E0E00FB0EFC94
:104B600038BF49004FEA2C1C02F5FA020CFB0EF389
:104B70004FEACE1E4FEA112C4FEAC1210EEB635EC5
:104B800042EB22420EFB0CFC4FEA1C5300FB0311CC
:104B90004FEA112C4FEA01310EFB0CFC4FEADC4CC2
:104BA00000FB0C11C14228BF09184CEB03335DF820
:104BB00004EB10EB410143EBC250B2F57C0F38BF60
:104BC000704729D512F0F00F1CBF00F1C04000F073
:104BD00000407047008182838485868788898B8C1A
:104BE0008D8E8F919293959697999A9C9D9FA0A256
:104BF000A3A5A7A8AAACAEB0B2B3B5B7B9BCBEC0A6
:104C0000C2C5C7C9CCCED1D4D7D9DCDFE2E6E9EC46
:104C1000F0F3F7FAFE0000004FEA400C0CF1807C44
:104C2000BCF17E4F28BF7047B0F1C04000F03FB9E3
:104C300090EA010F0CEAD11348BF42F4807262453A
:104C400038BF634507D213F47F0F16D080EA010006
:104C500000F00040704710B500F0E3F8097EFC3E1C
:104C600000F005B880EA010000F00040704780EADB
:104C7000010000F0004000F01AB912F47F0F04BFE9
:104C80000248704780EA010000F011B90000C07FBF
:104C900041000B0ED3F19E0208D950F400034FEAF5
:104CA000032323FA02F048BF4042704710B500F0DA
:104CB000B8F800BF49922480002070476FF000428E
:104CC00082EA20007047000010F0004148BF4042D7
:104CD000B0FA80F310FA03F2C3F19D030BD051EA4E
:104CE000C35101EB1220530638BF704700F1010099
:104CF00008BF20F001007047B0FA80F310FA03F209
:104D0000C3F19D030AD0D90501EB1220530638BF29
:104D1000704700F1010008BF20F00100704700005B
:104D20004FF47F0C1CEAD0121EBF1CEAD11392EA8A
:104D30000C0F93EA0C0F00F0478090EA010F48BF78
:104D400042F480724FF0004C4CEA00204CEA012102
:104D500002EB0302A0FB0113A2F50002002918BF19
:104D600043F001035B0028BF4FEA330342EB2242CA
:104D70005FEA132C4CEBC2502EBFBCEB436FB2F575
:104D80007C0F70474FEA036CBCF1004F08BF20F066
:104D90000100B2F57C0F38BF70470BD582F0FF02DF
:104DA00012F5803FC8BF704700F1C040D8BF00F087
:104DB0000040704700F5000C5FEA4C0C48BF70479C
:104DC000B0F1C04000F073B890EA010F0CEAD113C3
:104DD00048BF42F48072624538BF634504D280EA1E
:104DE000010000F00040704710B500F01AF800BF55
:104DF0008900013E00F007B800F009B85FEA410CF5
:104E00005FEA1C6C08D080EA010000F050B85FEA4D
:104E1000400C5FEA1C6CF6D14FF00040A0F580001A
:104E200070470EF1020E2EF0030E5EF8044B244282
:104E300004D44FEA4102B2F17F4F11D84FEA400348
:104E4000B3F17F4F0CD80ED14FEAD07CB2F17F4F37
:104E50000CEB4C0C0CF1020C08BF4CEBD17C04E0C9
:104E60004FF0080C01E04FEAD17C0CEB4C0324FA24
:104E700003F404F00704B4F1040C06D20EEB840C26
:104E8000BDE810404CF0010C6047DFE80CF007086B
:104E900002024FF00040A0F5800010BD084642001D
:104EA00018BFD2F1807288BF00F0004010BDFF2112
:104EB00041EAD050C0057047D84E000800000020DD
:104EC000640000006C0100083C4F000864000020F2
:104ED0002C0700008801000800000000000000000E
:104EE000000000000100000000A24A0400000000D1
:104EF0000000000001020304060708092B079608BA
:104F00008908000000000000000000000000000010
:104F10000000000000000000000000000000000091
:104F20000000000000000000000001020304010274
:0C4F30000304060708090204060800003C
:0400000508000131BD
:00000001FF
